:0200000067296E
:0E0006008312031327088A00260882000800D0
:1000140003208A110A128000840AA60A0319A70A77
:08002400F003031D0A28080087
:10002C00013083120313A4000030A500860187124F
:10003C0007160713871308108814081DC8280030EA
:10004C0088190130A000A10100302106031D3028C1
:10005C0001302006031DBF2800302306031D38285D
:10006C0000302206031DBF28A40A0319A50A00307C
:10007C002506031D432801302406031D4B28871237
:10008C000716071387130810881400302506031D64
:10009C00512802302406031D8428871607120713E3
:1000AC00871708108810A801A9018030F000803053
:1000BC0029067002031D64282808033C031C8428AD
:1000CC002808F0002908F100F00DF10D70107008EF
:1000DC00A03E8400000886000B30FB002630FC009C
:1000EC005D30FD00FD0B7828FC0B7828FB0B782885
:1000FC0000000000A80A0319A90A5B280030250695
:10010C00031D8A2803302406031DBF2887120712FB
:10011C000717871308148810A801A9018030F00074
:10012C00803029067002031D9D282808033C031CFF
:10013C00BD282808F0002908F100F00DF10D701011
:10014C007008A03E8400000886000B30FB002630AF
:10015C00FC005D30FD00FD0BB128FC0BB128FB0B46
:10016C00B12800000000A80A0319A90A9428A401C8
:10017C00A5012008A2002108A300831620088312E1
:06018C0086002328080094
:100192008312031307128716071387170810881094
:1001A20008196629A801A90180302906F0008030CB
:1001B2007002031DDE28273028020318652908195A
:1001C20065292808F0002908F100F00DF10D7010E2
:1001D2007008A03E8400000886008030F000803065
:1001E20029067002031DF7282808033C031CFF2878
:1001F2008716071207138717081088108030290600
:10020200F00080307002031D082904302802031C0C
:100212001B298030F000803029067002031D13294B
:100222002808173C031C1B29871207120717871778
:100232000810881080302906F00080307002031DFB
:10024200242918302802031C37298030F00080301E
:1002520029067002031D2F2928081A3C031C37297E
:10026200871207160713871308148810803029068F
:10027200F00080307002031D40291B302802031C4D
:1002820053298030F000803029067002031D4B296B
:100292002808263C031C53298712071607138713C5
:1002A200081088140B30FB002630FC005D30FD0086
:1002B200FD0B5929FC0B5929FB0B592900000000A1
:0C02C200A80A0319A90AD528D1280800B1
:1002CE00D02183160313860187010C308800FF307E
:1002DE008312870008197529C920762916207129DD
:0202EE0077296E
:1003A00020308400043083120313F000CB30A60009
:1003B0000130A7000A20A03084004E300313F00063
:0C03C0007D30A6000130A7000A200800D4
:1002FA00003400340134003402340034033400344E
:10030A00043400340534003406340034073400342D
:10031A000834003409340034103400341134003401
:10032A0012340034133400341434003415340034D5
:10033A0016340034173400341834003419340034B5
:10034A00203400342134003422340034233400347D
:10035A00243400342534003426340034273400345D
:10036A002834003429340034303400343134003431
:10037A003234003433340034343400343534003405
:0C038A003634003437340034383400348A
:0403960000340034FB
:04039A0000340034F7
:02400E004A2F37
:00000001FF
